:100000000C9466000C948E000C948E000C948E0060
:100010000C948E000C948E000C948E000C941E0E8A
:100020000C948E000C948E000C948E000C948E0018
:100030000C948E000C948E000C948E000C948E0008
:100040000C94CB0E0C948E000C9499090C94CB0953
:100050000C948E000C948E000C948E000C948E00E8
:100060000C948E000C948E00657272006F6B00020F
:100070000000000800020100000304070000000067
:100080000000000001020408102040800102040862
:1000900010200102040810200404040404040404D1
:1000A0000202020202020303030303030000000032
:1000B00023002600290000000000250028002B0056
:1000C00000000000240027002A00FB0911241FBEA5
:1000D000CFEFD8E0DEBFCDBF11E0A0E0B1E0E2EAB3
:1000E000F8E202C005900D92A635B107D9F722E0DB
:1000F000A6E5B1E001C01D92AF34B207E1F710E010
:10010000C6E6D0E004C02197FE010E94A412C536C5
:10011000D107C9F70E94BC0E0C944F140C94000038
:10012000CF92DF92EF92FF920F931F93E82FF92F58
:1001300005C0015011092109310961F1908196230F
:100140009417B9F305C0015011092109310911F1C2
:10015000908196239413F7CFC12CD12CE12CF12C54
:100160000AC08FEFC81AD80AE80AF80A0C151D054C
:100170002E053F0579F080818623841791F36C2D3D
:100180007D2D8E2D9F2D1F910F91FF90EF90DF9071
:10019000CF90089560E070E080E090E01F910F91B3
:1001A000FF90EF90DF90CF900895DC01ED91FC91EE
:1001B0000190F081E02D09940F931F93CF93DF936B
:1001C000082FD92F162FC72F692F6095661F662716
:1001D000661F84E00E94A2106C2F6095661F662740
:1001E000661F87E00E94A210602F7D2F77FF03C05B
:1001F0007195619571096F3F710519F014F06FEFFA
:1002000070E085E00E94E00F612F7C2F77FF03C034
:100210007195619571096F3F710519F014F06FEFD9
:1002200070E086E0DF91CF911F910F910C94E00F69
:1002300070E060E090E080E00E94DC0060E084E03C
:100240000E94A21060E087E00E94A210109291012B
:1002500083E58093000108954F925F926F927F92A1
:100260008F929F92AF92BF92CF92DF92EF92FF92C6
:100270004B015C0169017A016091020170910301F7
:10028000072E000C880B990B0E945A112B013C0180
:10029000A70196010E94E6110E9422116B01A5019F
:1002A0009401C301B2010E94E6110E942211CB0108
:1002B000B601FF90EF90DF90CF90BF90AF909F90EE
:1002C0008F907F906F905F904F900C94DC00EF9236
:1002D000FF921F93CF93DF93CDB7DEB72C970FB666
:1002E000F894DEBF0FBECDBF89836A834B838C83B6
:1002F0006D834E838F83688749878A876B874C8796
:10030000E0E9F0E01491E4EAF0E0E491F0E0EE0FCF
:10031000FF1FEA54FF4FE590F49061E08CE00E94EB
:1003200066104FB7F894D7019C91912BEC911095E2
:100330001E23FE0131963DE058E03150A1F081913D
:10034000252FD7019C930000000087FF1C93880F86
:100350000000000000001C930000000000000000EE
:100360002A9581F7EACF4FBF80E590E02C960FB633
:10037000F894DEBF0FBECDBFDF91CF911F91FF90EC
:10038000EF900C947F0FAF92BF92CF92DF92EF92DB
:10039000FF920F931F93CF93C82F87EF8C0F82305C
:1003A00008F061C08091570181110FC082E08093F5
:1003B00080008AE18093810080E49CE9909387002B
:1003C0008093860081E08093570177FD40C0653BB4
:1003D000710514F064EB70E0072E000C880B990B8C
:1003E0001F921F9229E02F9320E62F9320E2A22E46
:1003F00022E0B22EC12CD12C14EBE12EF12C00E026
:1004000010E020E030E0A9010E947A0E6B0161E06B
:100410008C2F0E9466100F900F900F900F90CC0CB5
:10042000DD1CC930C1F4D0928900C092880080914F
:10043000800080688093800081E0CF911F910F91B0
:10044000FF90EF90DF90CF90BF90AF90089560E065
:1004500070E0CB01C5CFD0928B00C0928A00809112
:1004600080008062E7CF80E0E8CF80915701882349
:1004700041F081E08093800083E0809381001092BE
:1004800057010895CF93DF93C82FD62F60E08D2FAB
:100490000E94661060E08C2F0E94A21061E08C2FF9
:1004A0000E94661083E090E00E947F0F61E08C2F35
:1004B0000E94A2108AE090E00E947F0F60E08C2FE3
:1004C0000E94A21060E08C2F0E94661028EA31E69C
:1004D00040E050E061E08D2FDF91CF910C94F91056
:1004E00062E0813019F06EE0823019F48EE00C94F5
:1004F000420282E0FCCFCF9380915601882301F124
:100500000E947002C1E0611571058105910501F538
:10051000C430D1F0209156012C1781F06AE070E0D0
:1005200080E090E00E94460F8C2F0E9470026115BF
:1005300071058105910511F0C0935601CF5FE3CF9E
:1005400060E070E0CB01DECF87EE93E0CF910895BD
:100550002AE330E040E050E00E946312C901813993
:1005600021E092079CF380E991E0F0CFFF920F9396
:100570001F93CF93DF93F82ED0E0C0E0062F10E05A
:100580008F2D0E94D0108017910739F42196C13D1C
:1005900087E0D807A9F7CFEFDFEFCE01DF91CF914A
:1005A0001F910F91FF9008952F923F924F925F926B
:1005B0006F927F928F929F92AF92BF92CF92DF9273
:1005C000EF92FF920F931F93CF93DF93CDB7DEB7D8
:1005D000C75AD1090FB6F894DEBF0FBECDBF382E73
:1005E0004B01CA55DF4F59834883C65AD0408E010C
:1005F0000F551F4F85E0D8011D928A95E9F762E0FB
:10060000832D0E94661062E070E080E090E00E941E
:10061000460F61E0832D0E94661060E0832D0E94EA
:10062000A21064E170E080E090E00E94460FF89430
:1006300062E0832D0E94661088E290E00E947F0FA6
:1006400061E0832D0E94B602019609F499C060E032
:10065000832D0E94B602019609F492C061E0832DB9
:100660000E94B60221E0019609F420E07E0131E506
:10067000E30EF11CCE0101966C013C01270188E2DA
:10068000282E222309F47CC060E0832D0E94B6024C
:100690005C01D2018D939D932D0161E0832D0E9419
:1006A000B602F301819391933F01AB20A09419F01E
:1006B00021E0019609F420E02A942110E2CF7894F9
:1006C00090E080E041E050E021111CC020E0822F4A
:1006D000C955DF4F0FB6F894DEBF0FBECDBFDF9117
:1006E000CF911F910F91FF90EF90DF90CF90BF902F
:1006F000AF909F908F907F906F905F904F903F90C2
:100700002F900895D601ED91FD916D01D7016D9166
:100710007D917D016E177F07A8F4E82FE695E69599
:10072000E695E00FF12FF11DBC01609570956770A3
:100730007727DA0102C0AA0FBB1F6A95E2F7308162
:100740003A2B3083019688329105E1F6F801408119
:1007500092818181840F890F3381830F34818313C8
:10076000B5CF50E0CA55DF4FA881B981C65AD040F5
:100770004D935C93892F90E0F40191838083A7CF00
:100780007894A4CFCF930E9418018DE00E94090EA7
:100790000E943502C2E08CEF8C0F843070F08C2FF9
:1007A0008D7F8C3051F0C23041F060E08C2F0E9480
:1007B000661060E08C2F0E94A210CF5FC43159F701
:1007C00061E089E00E94661060E089E00E94A2106A
:1007D00061E08DE00E94661060E08DE00E94A21052
:1007E00040E060E080E0CF910C946701CF93EDEBA7
:1007F000E80FE83108F02CC0C82F0E2E000CFF0BBC
:10080000EC5FFB4F0C94A41258042A044A042804F9
:10081000280428042804280428042F042804280471
:1008200028042804410438045D0428041C04280416
:100830002804280428044F0420E030E040E85FE367
:10084000CA01B9010E942C0110929101C0930001CC
:10085000CF91089520E030E040E85FEBF1CF20E059
:1008600030E040E85FE360E070E080E89FEBEACFD3
:1008700020E030E040E85FEB60E070E080E89FE37C
:10088000E1CF20E030E040E85FE363E373E383EB34
:100890009EE3D8CF23E333E343EB5EE3EDCF20E0E9
:1008A00030E040E85FEB63E373E383EB9EEBCACF9A
:1008B00023E333E343EB5EEBD6CFCF910C941801E7
:1008C0008F3331F466E071E082E991E00C94A50A7F
:1008D000803541F40E9418018DE00E94090E1092AB
:1008E00001010895909101019923E9F19FEC980F7E
:1008F000993078F4E82FEE0FFF0BE353FF4F808120
:1009000091819093030180930201809100010C94E6
:10091000F6038635F9F06CF48634A9F02CE231E068
:1009200040E050E06AEB72E0843589F78DE00C948A
:100930007B0B863799F08737A1F0873541F761E067
:1009400089E00C94A2102CE231E040E050E067E135
:1009500074E0ECCF20E030E0A901F9CF8DE00C94F9
:10096000090E60E0EDCF08950F931F93CF93DF93AF
:100970006BE570E00E940214EC01009749F10196CA
:100980000E94DB138C016CE270E0CE010E94021425
:10099000D0E0C0E0009721F001960E94DB13EC014B
:1009A0000E941801101611061CF081E0219709F42D
:1009B00080E0809301012AEF30E040E050E06AEBF4
:1009C00072E08DE0DF91CF911F910F910C947B0B22
:1009D000DF91CF911F910F9108956CE670E082E94D
:1009E00091E00C94930A68E670E082E991E00C943F
:1009F000930ACF93C82FE82FF0E084E0F595E795B0
:100A00008A95E1F7E25EFE4F6081062E000C770BBF
:100A100082E991E00E94D500CF70EC2FF0E0E25E19
:100A2000FE4F6081062E000C770B82E991E0CF919A
:100A30000C94D5008F929F92AF92BF92CF92DF928B
:100A4000EF92FF920F931F93CF93DF93CDB7DEB753
:100A500062970FB6F894DEBF0FBECDBF7C01FC01DC
:100A600010811B37A9F40E94B40462960FB6F89463
:100A7000DEBF0FBECDBFDF91CF911F910F91FF90D1
:100A8000EF90DF90CF90BF90AF909F908F900895A0
:100A9000B18019821A821B821C821D821E821F82D3
:100AA000188619861A861B861C8601969A8B898B56
:100AB000CE0101966C0100E0E989FA8980818823E2
:100AC000E1F089899A89FC012081203221F4019684
:100AD0009A8B898BF6CF222381F00F5F4AE050E09A
:100AE000BE016F5E7F4F0E94C412F6016193719345
:100AF000819391936F010330F9F6F0E2BF16B9F0DC
:100B0000F7018181811113C01F3309F436C01835F4
:100B100009F43AC01B3409F439C0113509F439C05D
:100B2000153509F47CC1812F0E9460049ECFE1EC51
:100B3000E10FEA3108F071C00E2E000CFF0BED55ED
:100B4000FA4F0C94A412BD050D0679060D060D068C
:100B5000FE050D060D060D068D060D060D06C605D5
:100B60000D06B30612070D062206C90558064C06E7
:100B70004E070F070D060D06C40566E071E082E919
:100B800091E00E94A50A71CF0E94C2030E94ED0469
:100B90006CCF84B10E94F90460E270E082E991E0D8
:100BA0000E94D50085B10E94F90460E270E082E9FC
:100BB00091E00E94D50083B10E94F90460E270E0E8
:100BC00082E991E00E94D5008AB10E94F90460E2B6
:100BD00070E082E991E00E94D5008BB10E94F90497
:100BE00060E270E082E991E00E94D50089B10E9444
:100BF000F90482E991E00E948F0A37CF023068F051
:100C0000C980DA80EB80FC80D701C6010297A10978
:100C1000B1094297A105B10518F00E94F30425CF50
:100C200061E08C2D0E94661061E08D819E81AF8114
:100C3000B885892B8A2B8B2B09F460E08C2D0E94C0
:100C4000A210A4CF023048F3C980DA80EB80FC8088
:100C5000D701C6010297A109B1094297A105B105C3
:100C6000E0F661E08C2D0E9466108D819E81AF813F
:100C7000B88570E060E0B7FD0BC08F3F9105A1051E
:100C8000B10529F024F08FEF90E0A0E0B0E0BC01C6
:100C90008C2D0E94E00F7ACF023008F4BECF6D8118
:100CA0007E8189810E94C301882309F4B6CF6ECF6B
:100CB000002309F4B2CFC980DA80EB80FC80D70131
:100CC000C6010297A109B1094297A105B10508F033
:100CD000A4CF60E08C2D0E9466108C2D0E94D01055
:100CE00061E3892B09F460E382E991E00E94BC0A88
:100CF000BCCE002309F491CF89819A81AB81BC815C
:100D000088309105A105B10508F087CF825F0E9468
:100D1000C50F4AE050E0BC011FC0002311F1AE0135
:100D2000435F5F4FBE01615F7F4F89810E94D402A4
:100D30008823B9F06F8578894AE050E082E991E034
:100D40000E94620B60E270E082E991E00E94D500AF
:100D50006D857E854AE050E082E991E00E94690B52
:100D600084CE65E4C1CF023008F457CFCD80DE8059
:100D7000EF80F88401E01FEFFCE9CF16FFEFDF06FC
:100D8000EF06FF06BCF09601A70185E6C816D10460
:100D9000E104F10424F024E630E040E050E0AFEF5D
:100DA000B0E00E94AA1224E630E040E050E00E9449
:100DB0008512890189809A80AB80BC809CE9891664
:100DC0009FEF9906A906B9063CF19401A501E5E655
:100DD0008E169104A104B10424F024E630E040E032
:100DE00050E0AFEFB0E00E94AA1224E630E040E00D
:100DF00050E00E948512C901B8010E94DC0081E028
:100E000089288A288B2829F4CD28CE28CF2809F4D0
:100E100080E080939101BACE81E09FEFEDCF0E94F8
:100E20007B0277CF033009F0F8CE49855A856B8570
:100E30007C8577FD2FC04F3F51056105710529F075
:100E400024F04FEF50E060E070E08D819E81AF8133
:100E5000B88560E0B7FD0BC08F3F9105A105B105D6
:100E600029F024F08FEF90E0A0E0B0E0682F8981B6
:100E70009A81AB81BC81B7FD0FC08F3F9105A10561
:100E8000B10529F024F08FEF90E0A0E0B0E00E94DF
:100E900067017CCE40E0D9CF80E0F9CF002309F490
:100EA000BCCE69817A818B819C8116161706180643
:100EB000190624F08DE00E94090E68CE013069F019
:100EC0002D813E814F815885121613061406150692
:100ED00024F48DE00E947B0B59CE20E030E0A90184
:100EE000F8CF61E084E00E94661061E087E00E9434
:100EF000661061E085E00E94661061E086E00E9475
:100F0000661061E089E00E94661061E08DE00E9459
:100F100066100E94180140E060E080E00E946701D6
:100F200026E040E855E260E070E082E991E00E944E
:100F3000370961E089E00E94A21026E930E040E034
:100F400050E06AEB72E08DE00E947B0B6AEF70E08C
:100F500080E090E00E94460F60E089E00E94A210CD
:100F600066E071E082E991E00C94A50A0F931F936B
:100F7000CF9382E991E00E945D08892BB9F182E963
:100F800091E00E947708C82F0E94150F60935801C6
:100F90007093590180935A0190935B01CD3049F3CE
:100FA000E0915C01CA30B9F4EE2319F3F0E0E35AA2
:100FB000FE4F108210925C010E94150F60938D010C
:100FC00070938E0180938F01909390018DE591E055
:100FD0000E941A05CECFEF3260F681E08E0F80932B
:100FE0005C01F0E0E35AFE4FC083C3CF80915C0107
:100FF000882309F442C00E94150F009158011091F6
:10100000590120915A0130915B01601B710B820BD9
:10101000930B6A3171058105910578F180915D012D
:101020008B37B1F080915C01823020F080915E01BD
:10103000803271F0C0E080915C01C817E0F4EC2FC1
:10104000F0E0E35AFE4F80810E946004CF5FF3CF4F
:101050000E94150F009158011091590120915A01D9
:1010600030915B01601B710B820B930B693E7340E7
:101070008105910510F010925C0180919101882307
:10108000C1F00E94150F00918D0110918E012091E9
:101090008F0130919001601B710B820B930B6D3DA2
:1010A00075408105910528F0CF911F910F910C9407
:1010B0001801CF911F910F910895FC01918D228D00
:1010C000892F90E0805C9F4F821B91098F73992735
:1010D0000895FC01918D828D981731F0828DE80F73
:1010E000F11D858D90E008958FEF9FEF0895FC012D
:1010F000918D828D981761F0A28DAE0FBF2FB11D1B
:101100005D968C91928D9F5F9F73928F90E0089572
:101110008FEF9FEF0895FC01538D448D252F30E014
:10112000842F90E0821B930B541710F0CF960895F4
:101130000197089581EF99E0892B49F080E090E0D4
:10114000892B29F00E94F10981110C940000089567
:10115000FC01A48DA80FB92FB11DA35ABF4F2C912C
:10116000848D90E001968F739927848FA689B78923
:101170002C93A089B1898C91837080648C93938D1A
:10118000848D981306C00288F389E02D80818F7DBD
:1011900080830895CF93DF93EC01888D8823B9F085
:1011A000AA89BB89E889F9898C9185FD03C0808172
:1011B00086FD0DC00FB607FCF7CF8C9185FFF2CFEF
:1011C000808185FFEDCFCE010E94A808E9CFDF9195
:1011D000CF910895EF92FF920F931F93CF93DF93D8
:1011E000EC0181E0888F9B8D8C8D98131AC0E88963
:1011F000F989808185FF15C09FB7F894EE89FF8932
:101200006083E889F98980818370806480839FBFCF
:1012100081E090E0DF91CF911F910F91FF90EF90CF
:101220000895F62E0B8D10E00F5F1F4F0F731127DF
:10123000E02E8C8D8E110CC00FB607FCFACFE8891A
:10124000F989808185FFF5CFCE010E94A808F1CFF2
:10125000EB8DEC0FFD2FF11DE35AFF4FF0829FB78E
:10126000F8940B8FEA89FB8980818062CFCFCF927F
:10127000DF92EF92FF921F93CF93DF93EC016A010D
:101280007B01122FE889F98982E08083C11481EE05
:10129000D806E104F104A1F060E079E08DE390E08C
:1012A000A70196010E946312215031094109510999
:1012B0005695479537952795211580E1380798F081
:1012C000E889F989108260E874E88EE190E0A7016E
:1012D00096010E9463122150310941095109569526
:1012E000479537952795EC85FD853083EE85FF85FD
:1012F0002083188EEC89FD891083EA89FB8980811F
:1013000080618083EA89FB89808188608083EA89A3
:10131000FB89808180688083EA89FB8980818F7D59
:101320008083DF91CF911F91FF90EF90DF90CF905E
:1013300008951F920F920FB60F9211242F938F933F
:101340009F93EF93FF93E091A201F091A30180811D
:10135000E091A801F091A90182FD1BC090818091CC
:10136000AB018F5F8F732091AC01821741F0E09148
:10137000AB01F0E0EE56FE4F958F8093AB01FF91ED
:10138000EF919F918F912F910F900FBE0F901F9013
:1013900018958081F4CF1F920F920FB60F921124EF
:1013A0002F933F934F935F936F937F938F939F936D
:1013B000AF93BF93EF93FF9382E991E00E94A80857
:1013C000FF91EF91BF91AF919F918F917F916F911D
:1013D0005F914F913F912F910F900FBE0F901F90F3
:1013E000189582E991E00E945D0821E0892B09F4BB
:1013F00020E0822F0895E2E9F1E01382128288EE64
:1014000093E0A0E0B0E084839583A683B78385E46E
:1014100091E09183808385EC90E09587848784ECCC
:1014200090E09787868780EC90E0918B808B81ECB1
:1014300090E0938B828B82EC90E0958B848B86EC92
:1014400090E0978B868B118E128E138E148E0895DA
:10145000AF92BF92CF92DF92EF92FF920F931F93C2
:10146000CF93DF936C017B018B01040F151FEB0100
:101470005E01AE18BF08C017D10759F06991D601B7
:10148000ED91FC910190F081E02DC6010995892B29
:1014900079F7C501DF91CF911F910F91FF90EF90E8
:1014A000DF90CF90BF90AF900895FB010190002096
:1014B000E9F73197AF01461B570BDC01ED91FC9129
:1014C0000280F381E02D0994EF92FF920F931F9316
:1014D000CF93DF938C017B01D0E0C0E0F701EC0FEC
:1014E000FD1F6491662361F0D801ED91FC9101909C
:1014F000F081E02DC8010995892B11F02196EECFDE
:10150000CE01DF91CF911F910F91FF90EF90089541
:10151000DC01ED91FC910190F081E02D099463E5EF
:1015200071E00C94550A0F931F93CF93DF93EC0156
:101530000E94640A8C01CE010E948F0A800F911FC5
:10154000DF91CF911F910F9108950F931F93CF9328
:10155000DF938C01D0E0C0E06115710519F00E94A5
:10156000550AEC01C8010E948F0A8C0F9D1FDF9164
:10157000CF911F910F9108950F931F93CF93DF93F6
:10158000EC010E94880A8C01CE010E948F0A800F14
:10159000911FDF91CF911F910F9108958F929F928C
:1015A000AF92BF92EF92FF920F931F93CF93DF936F
:1015B000CDB7DEB7A1970FB6F894DEBF0FBECDBF93
:1015C0007C01FA01CB0119A2223008F42AE08E0135
:1015D0000F5D1F4F822E912CB12CA12CBF01A501B4
:1015E00094010E946312F901CA016A300CF5605D32
:1015F000D8016E938D01232B242B252B79F790E0B6
:1016000080E0109721F0BD01C7010E94550AA19604
:101610000FB6F894DEBF0FBECDBFDF91CF911F9103
:101620000F91FF90EF90BF90AF909F908F90089593
:10163000695CDECFCF92DF92EF92FF920F931F9300
:10164000CF93DF932115310581F4DC01ED91FC91FD
:101650000190F081E02D642FDF91CF911F910F91C8
:10166000FF90EF90DF90CF9009942A30310501F57B
:101670002AE077FF1DC06A017B01EC016DE20E9448
:10168000880A8C0144275527BA014C195D096E0957
:101690007F092AE0CE010E94CE0A800F911FDF91C0
:1016A000CF911F910F91FF90EF90DF90CF90089511
:1016B000DF91CF911F910F91FF90EF90DF90CF902E
:1016C0000C94CE0A9A01AB01770F660B770B0C9442
:1016D0001A0B0F931F93CF93DF93EC010E94620BC1
:1016E0008C01CE010E948F0A800F911FDF91CF9154
:1016F0001F910F9108954F925F926F927F928F92F8
:101700009F92AF92BF92CF92DF92EF92FF920F9390
:101710001F93CF93DF9300D000D01F92CDB7DEB7D9
:101720008B0129013A01909104018917C9F09F3F6B
:1017300009F47EC00F900F900F900F900F90DF91E3
:10174000CF911F910F91FF90EF90DF90CF90BF90BE
:10175000AF909F908F907F906F905F904F90089583
:10176000EFE6F0E094919D8397FDE4CF61E00E9465
:1017700066108D81882321F09D81923009F052C13D
:101780004801B12CA12C60E072E18AE790E0A5014C
:1017900098010E94851229833A834B835C836901F7
:1017A0007A0181E0C81AD108E108F1089FEFC91653
:1017B000D104E104F10409F00CF409C160E472E41D
:1017C0008FE090E0A50198010E94851269017A01DD
:1017D00081E0C81AD108E108F1089D81923009F032
:1017E000AAC08FEFC816D104E104F10409F00CF48B
:1017F000EEC160E970ED83E090E0A50198010E94E0
:10180000851269017A0191E0C91AD108E108F1084D
:101810008FEFC816D104E104F10411F00CF087C178
:1018200083E09091B100987F892B8093B100D7C05D
:1018300080930401EFE6F0E094919D839F3F09F4CB
:1018400079CF913061F150F0923009F44EC09D8112
:1018500097FD70CF61E00E9466108ECF14BC15BC5E
:1018600094B5926094BD95B5916095BD282F30E0F8
:10187000F901E856FF4FE491F0E0EE0FFF1FEA5444
:10188000FF4F4591549150933F0240933E02F9011E
:10189000EC57FF4FE491E0933D021D8267CF109219
:1018A0008000109281009091810098609093810057
:1018B00090918100916090938100282F30E0F90190
:1018C000E856FF4FE491F0E0EE0FFF1FEA54FF4FA0
:1018D000459154915093380240933702F901EC57E7
:1018E000FF4FE491E093360241CF1092B000109286
:1018F000B1009091B00092609093B0009091B100CF
:1019000091609093B100282F30E0F901E856FF4F25
:10191000E491F0E0EE0FFF1FEA54FF4F4591549120
:101920005093310240933002F901EC57FF4FE4919C
:10193000E0932F021BCF9FEFC916D104E104F104FD
:1019400009F00CF46DC068E478EE81E090E0A50148
:1019500098010E94851269017A0181E0C81AD108B4
:10196000E108F1089D81992309F4FAC08FEFC816A8
:10197000D104E104F10411F00CF0FBC0EFC064E20B
:1019800074EF80E090E0A50194010E948512690146
:101990007A0181E0C81AD108E108F10885E09FEFDB
:1019A000C916D104E104F10409F008F43ACF62E168
:1019B0007AE780E090E0A50194010E948512690118
:1019C0007A0181E0C81AD108E108F108E5C081E098
:1019D0009D81911126CF95B5987F892B85BD2FEFDD
:1019E0003FEFA901411451046104710409F043C09F
:1019F0009D81913009F45EC0923009F46DC091115F
:101A000099CEC7BC209340023093410240934202DA
:101A10005093430280916E00826080936E008ACE64
:101A200082E0D6CFB12CA12C60E072E18AE790E091
:101A3000A50198010E94851269017A0181E0C81A06
:101A4000D108E108F108C114D10491E0E906F104DC
:101A500004F591E08D81813011F680918100887FBD
:101A6000892B809381002FEF3FEFA901411451048E
:101A700061047104F9F0D801AA0FBB1FA301920100
:101A80000E94AA1228EE33E040E050E00E94631268
:101A9000AFCF68E478EE81E090E0A50198010E9464
:101AA000851269017A0181E0C81AD108E108F108BC
:101AB00093E0D0CFD0928900C09288002093390261
:101AC00030933A0240933B0250933C0280916F0066
:101AD000826080936F002ECEC092B30020933202BA
:101AE000309333024093340250933502809170005A
:101AF0008260809370001ECE84E09FEFC916D104EF
:101B0000E104F10409F008F466CFC980DA80EB80C3
:101B1000FC808AE0F594E794D794C7948A95D1F72E
:101B200081E0C81AD108E108F10885E054CF68E4E3
:101B300078EE81E090E0A50198010E94851269018C
:101B40007A0181E0C81AD108E108F1089FEFC916AF
:101B5000D104E104F10411F00CF011CF84E061CE66
:101B600083E09FEFC916D104E104F10409F00CF4FD
:101B700032CF62E17AE780E090E0A50194010E9413
:101B8000851269017A0181E0C81AD108E108F108DB
:101B90009D81992309F4B0CF86E09FEFC916D10447
:101BA000E104F10409F008F43CCEC980DA80EB804E
:101BB000FC809AE0F594E794D794C7949A95D1F76E
:101BC00081E0C81AD108E108F10887E02ACE82E056
:101BD00028CE813039F018F0823051F008951092FB
:101BE0006E00089580916F008D7F80936F0008953F
:101BF000809170008D7F8093700081E08093B000B1
:101C00008091B100887F84608093B1001092B3000E
:101C10000895CF93C82F80910401C8130DC0EFE63B
:101C2000F0E084919FEF909304010E94E90D60E041
:101C30008C2FCF910C94A2108FEFF7CF1F920F92A1
:101C40000FB60F9211242F933F934F935F936F938F
:101C50007F938F939F93AF93BF93EF93FF93809165
:101C6000320290913302A0913402B0913502892B57
:101C70008A2B8B2BD1F190912F02E0913002F091C1
:101C800031028081892780838091320290913302D2
:101C9000A0913402B0913502181619061A061B06D7
:101CA0009CF48091320290913302A0913402B09161
:101CB00035020197A109B109809332029093330252
:101CC000A0933402B0933502FF91EF91BF91AF9191
:101CD0009F918F917F916F915F914F913F912F9144
:101CE0000F900FBE0F901F901895809104010E94D5
:101CF000090EEACF4F925F926F927F92AF92BF929E
:101D0000CF92DF92EF92FF920F931F93CF93DF93C7
:101D1000CDB7DEB729013A019B01AC012419350981
:101D20004609570989899A89AB89BC89BC01CD01CB
:101D30006A197B098C099D090E945312A801970119
:101D400024193509460957090E948512CA01B901AB
:101D50006A0D7B1D8C1D9D1DDF91CF911F910F91F1
:101D6000FF90EF90DF90CF90BF90AF907F906F90FB
:101D70005F904F90089508950E948A0F0E94BB0EB5
:101D80000E947107CAE9D8E00E94B6072097E1F3E4
:101D90000E949A08F9CF1F920F920FB60F9211244A
:101DA0002F933F938F939F93AF93BF93809145025F
:101DB00090914602A0914702B091480230914402AE
:101DC00023E0230F2D3758F50196A11DB11D209357
:101DD00044028093450290934602A0934702B09339
:101DE00048028091490290914A02A0914B02B09121
:101DF0004C020196A11DB11D8093490290934A02A5
:101E0000A0934B02B0934C02BF91AF919F918F91E1
:101E10003F912F910F900FBE0F901F90189526E8BD
:101E2000230F0296A11DB11DD2CF2FB7F894609158
:101E300045027091460280914702909148022FBF5F
:101E400008953FB7F8948091490290914A02A09179
:101E50004B02B0914C0226B5A89B05C02F3F19F04C
:101E60000196A11DB11D3FBFBA2FA92F982F88271A
:101E7000BC01CD01620F711D811D911D42E0660FF5
:101E8000771F881F991F4A95D1F708958F929F92C7
:101E9000AF92BF92CF92DF92EF92FF926B017C01E3
:101EA0000E94210F4B015C01C114D104E104F10433
:101EB000E9F00E9421110E94210F681979098A090D
:101EC0009B09683E73408105910570F321E0C21AB9
:101ED000D108E108F10888EE880E83E0981EA11C65
:101EE000B11CC114D104E104F10429F7FF90EF9073
:101EF000DF90CF90BF90AF909F908F9008958230E9
:101F0000910538F0880F991F880F991F0597019741
:101F1000F1F70895789484B5826084BD84B58160BA
:101F200084BD85B5826085BD85B5816085BDEEE6E1
:101F3000F0E0808181608083E1E8F0E010828081C0
:101F400082608083808181608083E0E8F0E080812E
:101F500081608083E1EBF0E0808184608083E0EB4E
:101F6000F0E0808181608083EAE7F0E08081846036
:101F70008083808182608083808181608083808192
:101F8000806880831092C10008958E3008F08E50D2
:101F90002091050190E4299F900111248770822BE4
:101FA00080937C0080917A00806480937A00809195
:101FB0007A0086FDFCCF8091780090917900089599
:101FC0001F93CF93DF93182FEB0161E00E946610FF
:101FD000209739F460E0812FDF91CF911F910C940D
:101FE000A210CF3FD10511F461E0F5CFE12FF0E071
:101FF000E059FF4FE491E33031F140F4E130B1F0CA
:10200000E230E1F0C038D1057CF7E4CFE73029F1C8
:10201000E83059F1E430B1F780918000806280931C
:102020008000D0938B00C0938A0004C084B5806880
:1020300084BDC7BDDF91CF911F91089584B58062A3
:1020400084BDC8BDF7CF80918000806880938000F8
:10205000D0938900C0938800EDCF8091B000806854
:102060008093B000C093B300E5CF8091B000806250
:102070008093B000C093B400DDCF833081F028F4AA
:10208000813099F08230A9F008958730A9F0883026
:10209000C9F08430B1F4809180008F7D03C08091BD
:1020A00080008F7780938000089584B58F7784BDFA
:1020B000089584B58F7DFBCF8091B0008F7780939A
:1020C000B00008958091B0008F7DF9CFCF93DF935A
:1020D00090E0FC01EC57FF4F249188569F4FFC0184
:1020E00084918823C9F090E0880F991FFC01E05487
:1020F000FF4FA591B491FC01EA54FF4FC591D491D3
:1021000061110DC09FB7F8948C91209582238C9318
:102110008881282328839FBFDF91CF910895623063
:1021200051F49FB7F8943C91822F809583238C9330
:10213000E8812E2BEFCF8FB7F894EC912E2B2C93B8
:102140008FBFEACF1F93CF93DF93282F30E0F901A1
:10215000E059FF4F8491F901EC57FF4FD491F901F9
:10216000E856FF4FC491CC23A9F0162F81110E948D
:102170003D10EC2FF0E0EE0FFF1FEA54FF4FA5914A
:10218000B4918FB7F894EC91111108C0D095DE236B
:10219000DC938FBFDF91CF911F910895DE2BF8CF95
:1021A000CF93DF93282F30E0F901E059FF4F84915E
:1021B000F901EC57FF4FD491F901E856FF4FC49154
:1021C000CC23A1F081110E943D10EC2FF0E0EE0F26
:1021D000FF1FE455FF4FA591B491EC91ED2381E0F1
:1021E00090E009F480E0DF91CF91089580E090E0E5
:1021F000FACF0F931F9390E0FC01EC57FF4F7491BF
:10220000FC01E856FF4FE4916111672FF0E0EE0FFB
:10221000FF1FE455FF4F8591949189019A013F700A
:10222000462F672F0E949000611571058105910569
:1022300029F06F5F7F4F8F4F9F4F9F701F910F91BE
:10224000089508950E9429116894B1110C94E01129
:1022500008950E94C51188F09F5798F0B92F9927CB
:10226000B751B0F0E1F0660F771F881F991F1AF081
:10227000BA95C9F714C0B13091F00E94DF11B1E0F6
:1022800008950C94DF11672F782F8827B85F39F0F5
:10229000B93FCCF3869577956795B395D9F73EF41A
:1022A00090958095709561957F4F8F4F9F4F0895C2
:1022B000E89409C097FB3EF49095809570956195E0
:1022C0007F4F8F4F9F4F9923A9F0F92F96E9BB2796
:1022D0009395F695879577956795B795F111F8CF12
:1022E000FAF4BB0F11F460FF1BC06F5F7F4F8F4F7D
:1022F0009F4F16C0882311F096E911C0772321F073
:102300009EE8872F762F05C0662371F096E8862F0A
:1023100070E060E02AF09A95660F771F881FDAF761
:10232000880F9695879597F9089597F99F6780E8A4
:1023300070E060E008959FEF80EC089500240A9417
:102340001616170618060906089500240A94121690
:102350001306140605060895092E0394000C11F4C3
:10236000882352F0BB0F40F4BF2B11F460FF04C070
:102370006F5F7F4F8F4F9F4F089557FD9058440FC9
:10238000551F59F05F3F71F04795880F97FB991FD4
:1023900061F09F3F79F08795089512161306140691
:1023A000551FF2CF4695F1DF08C01616170618061E
:1023B000991FF1CF86957105610508940895E894F9
:1023C000BB2766277727CB0197F908950E94F9115B
:1023D0000C94AC110E949E1138F00E94A51120F0BF
:1023E000952311F00C9495110C949B1111240C94CD
:1023F000E0110E94BD1170F3959FC1F3950F50E05D
:10240000551F629FF001729FBB27F00DB11D639FA6
:10241000AA27F00DB11DAA1F649F6627B00DA11D4C
:10242000661F829F2227B00DA11D621F739FB00DF2
:10243000A11D621F839FA00D611D221F749F332762
:10244000A00D611D231F849F600D211D822F762FFB
:102450006A2F11249F5750409AF0F1F088234AF0D8
:10246000EE0FFF1FBB1F661F771F881F9150504044
:10247000A9F79E3F510580F00C9495110C94E01142
:102480005F3FE4F3983ED4F3869577956795B795CB
:10249000F795E7959F5FC1F7FE2B880F911D9695E5
:1024A000879597F90895DB018F939F930E94AA1255
:1024B000BF91AF91A29F800D911DA39F900DB29FE0
:1024C000900D11240895A1E21A2EAA1BBB1BFD0139
:1024D0000DC0AA1FBB1FEE1FFF1FA217B307E40703
:1024E000F50720F0A21BB30BE40BF50B661F771F5B
:1024F000881F991F1A9469F760957095809590953B
:102500009B01AC01BD01CF010895052E97FB1EF480
:1025100000940E949C1257FD07D00E94631207FC92
:1025200003D04EF40C949C12509540953095219513
:102530003F4F4F4F5F4F08959095809570956195EF
:102540007F4F8F4F9F4F0895EE0FFF1F0590F4911F
:10255000E02D09940E94B512A59F900DB49F900D97
:10256000A49F800D911D11240895A29FB001B39FD7
:10257000C001A39F700D811D1124911DB29F700D8C
:10258000811D1124911D0895B0E0A0E0EAECF2E174
:102590000C9419145C016B017A016115710519F035
:1025A000FB0191838083E114F10451F0C70102978C
:1025B000839730F040E030E020E090E072C05E01B0
:1025C000E5012196F5011081812F90E00E94F91319
:1025D000892BA9F71D3201F52196F501118101E042
:1025E000E114F10409F4DAC0F0E1EF16F10409F0A6
:1025F00082C0103359F488818F7D883509F076C008
:10260000198122960260F0E1EF2EF12C812C912CA1
:10261000A12C88E0B82E8CC01B3221F4E501229653
:10262000F501118100E0DCCFEAE0EE16F10409F4D7
:10263000BBC0F0E1EF16F10409F06DC0E7CF78E020
:10264000E72EF12C812C912CA12C60E1B62E70C0CC
:102650003FE9310F3A3128F439EA332E80C021E0C6
:102660009AC0302F3170C114D10431F0222309F106
:102670002197F601D183C08327FF21C060E070E07D
:1026800080E090E8311104C06FEF7FEF8FEF9FE79C
:1026900022E230E030934E0220934D02462F372F36
:1026A000282F642F732F822FCDB7DEB7E1E10C9472
:1026B000351401FF04C02297F601D183C083332370
:1026C00041F090958095709561957F4F8F4F9F4F0A
:1026D000E5CF97FFE3CF82E290E090934E028093A4
:1026E0004D026FEF7FEF8FEF9FE7D8CF10E3E1143C
:1026F000F10409F4A4CF28E0E216F10409F4A2CF12
:102700000CF092CF812C912CA12CE0E4BE2E82E023
:10271000E816F10469F060E070E080E090E897016D
:102720000F2C000C440B550B0E94631249015A01F7
:1027300020E060E070E0CB0127010F2C000C660860
:102740007708FE0150ED352E310E39E0331540F497
:102750003FEB310F3A3108F07BCF49EC342E310E8C
:102760003E141F040CF07DCF27FD15C0861697067A
:10277000A806B90678F0A30192010E945312630DD6
:10278000711D811D911D61307105810520E8920741
:1027900008F465CF2FEF21961081D3CF103309F4C1
:1027A0002ACF2AE0E22EF12C9CEC892E982CA82C22
:1027B0009CE0B92EBDCFFC0188279927E894219190
:1027C0002032E9F3293010F02E30C8F32B3241F0DB
:1027D0002D3239F4689404C00E940D14820F911DAB
:1027E000219120532A30C0F31EF4909581959F4F7C
:1027F000089591110C941514803219F08950855068
:10280000C8F70895FC018191861721F08823D9F734
:10281000992708953197CF0108957AE0979F902DD9
:10282000879F802D910D1124089599278827089559
:102830002F923F924F925F926F927F928F929F92D0
:10284000AF92BF92CF92DF92EF92FF920F931F93BE
:10285000CF93DF93CDB7DEB7CA1BDB0B0FB6F8946F
:10286000DEBF0FBECDBF09942A88398848885F84AF
:102870006E847D848C849B84AA84B984C884DF8020
:10288000EE80FD800C811B81AA81B981CE0FD11D04
:102890000FB6F894DEBF0FBECDBFED010895F894DA
:0228A000FFCF68
:1028A20053015000FF01415244424C4B203120520F
:1028B20032204C415A20636F6465207632003031F9
:1028C2003233343536373839414243444546003293
:1028D200004100500064007D009600B400D700FF64
:1028E2000000000000EA08280A8B08CA085D087781
:0628F2000869080D0A0050
:00000001FF
